:100000000C942A001895000018950000189500001F
:10001000189500001895000018950000189500002C
:100020001895000018950000189500000C946500C4
:10003000189500001895000018950000189500000C
:1000400018950000189500001895000018950000FC
:10005000189500008FE58DBFC8E3E0E24E2E88E0E2
:100060008EBFD8E0F8E05F2EA89584B7082E877F72
:1000700084BF88E1992781BD91BDEEEFF7E0A0E64E
:10008000B0E088278D933197E9F70E94200366241A
:100090000E9405038CE00E946E03889889988A98D4
:1000A0008B988C9A8D9A8E9A8F9A909A919A929A0E
:1000B000939AD69AD798DF9A83B7816083BF79B72E
:1000C000716079BF81E682BF2DC00F938F938FB788
:1000D0008F93AF93BF939F93A0E6B0E08D919C91D7
:1000E00001969C938E9300278130900711F4DE9A3D
:1000F0000FC0903041F0803D07E0900748F00027A6
:100100000D930C9305C012969D91891708F0DE9807
:1001100081E682BF9F91BF91AF918F918FBF8F91E9
:100120000F9118958AE590E0A3E6B0E08D939C933B
:10013000E0EDF7E00E94FC02F894E2E0F0E00E94BB
:1001400017030E9405038FE714E00E941403E0EEFA
:10015000F7E00E94FC028FEB13E00E941403EAEE2A
:10016000F7E00E94FC02E2E0F0E00E9417037894BE
:100170008091630080936200A5E6B0E088278C93AD
:100180000E940503E6EFF7E00E94FC020E940303D1
:100190007FEE72BB80990C94DB000E94F6017FEE2B
:1001A00072BB81990C94DB007FEE72BB82990C9438
:1001B000DB000E946E0181990C94E0000E946D02A8
:1001C00082990C94E5000E94A00283990C94EA00A5
:1001D0000E94D3027FED72BB80990C94F1000E94C3
:1001E000290281990C94F6000E947E0282990C9457
:1001F000FB000E94B10283990C9400010E943A0214
:100200007FEB72BB80990C9407010E944B0281998D
:100210000C940C010E948F0282990C9411010E948F
:10022000C20283990C9416010E94E4027FE772BB1C
:1002300080990C941D010E945C0281990C9422010A
:100240000E94070282990C9427010E94BC008399A6
:100250000C942C010E942E010C94C800EAE1F0E0FD
:10026000A6E7B0E091E10E94CD03E6E7F0E0A5E665
:10027000B0E00E94D60311F00C9461010E940503C6
:10028000E6E0F8E00E94FC028AE580936200E2E08A
:10029000F0E00E9417030E9405038FE711E00E941F
:1002A0001403E6E1F8E00E94FC02CF990C944D01A2
:1002B00088EC90E00E949B0383E5809362000C949D
:1002C0006B010E940503E4E2F8E00E94FC02E2E018
:1002D000F0E00E9417030C94BC0008950E940503EF
:1002E000A5E6B0E088278C93E2E3F8E00E94FC02E8
:1002F0008FEB11E00E941403E2E4F8E00E94FC029C
:100300007FEE72BB80990C9487010E94F60181995F
:100310000C948C010E946D0282990C9491010E94B0
:10032000A00283990C9496010E94D3027FED72BBC8
:1003300080990C949D010E94290281990C94A2013C
:100340000E947E0282990C94A7010E94B1028399B7
:100350000C94AC010E943A027FEB72BB80990C9422
:10036000B3010E944B0281990C94B8010E948F0244
:1003700082990C94BD010E94C20283990C94C2011F
:100380000E94E4027FE772BB80990C94C9010E942D
:100390005C0281990C94CE010E94070282990C9410
:1003A000D3010E946E0183990C94D8010E94DB0155
:1003B0000C9480010895E5E6F0E0A6E7B0E00E9425
:1003C000B403EAE1F0E0A6E7B0E091E17BE70E9448
:1003D000BF030E940503EAE4F8E00E94FC02E2E0A9
:1003E000F0E00E9417030C94BC00089588EC90E0A4
:1003F0000E949B03A5E6B0E00E94F502ECE5F8E060
:100400000E94AA03EEE5F8E00E94FC02089588EC41
:1004100090E00E949B03A5E6B0E00E94F502E0E6B2
:10042000F8E00E94AA03EEE5F8E00E94FC020895BD
:1004300088EC90E00E949B03A5E6B0E00E94F502E4
:10044000E2E6F8E00E94AA03EEE5F8E00E94FC0272
:10045000089588EC90E00E949B03A5E6B0E00E941E
:10046000F502E4E6F8E00E94AA03EEE5F8E00E9457
:10047000FC02089588EC90E00E949B03A5E6B0E0A2
:100480000E94F502E6E6F8E00E94AA03EEE5F8E035
:100490000E94FC02089588EC90E00E949B03A5E670
:1004A000B0E00E94F502E8E6F8E00E94AA03EEE55B
:1004B000F8E00E94FC02089588EC90E00E949B0303
:1004C000A5E6B0E00E94F502EAE6F8E00E94AA0381
:1004D000EEE5F8E00E94FC02089588EC90E00E94AE
:1004E0009B03A5E6B0E00E94F502ECE6F8E00E946E
:1004F000AA03EEE5F8E00E94FC02089588EC90E083
:100500000E949B03A5E6B0E00E94F502EEE6F8E04B
:100510000E94AA03EEE5F8E00E94FC02089588EC30
:1005200090E00E949B03A5E6B0E00E94F502E0E7A0
:10053000F8E00E94AA03EEE5F8E00E94FC020895AC
:1005400088EC90E00E949B03A5E6B0E00E94F502D3
:10055000E2E7F8E00E94AA03EEE5F8E00E94FC0260
:10056000089588EC90E00E949B03A5E6B0E00E940D
:10057000F502E4E7F8E00E94AA03EEE5F8E00E9445
:10058000FC02089588EC90E00E949B03A5E6B0E091
:100590000E94F502E6E7F8E00E94AA03EEE5F8E023
:1005A0000E94FC02089588EC90E00E949B03A5E65F
:1005B000B0E00E94F502E8E7F8E00E94AA03EEE549
:1005C000F8E00E94FC02089588EC90E00E949B03F2
:1005D000A5E6B0E00E94F502EAE7F8E00E94AA036F
:1005E000EEE5F8E00E94FC0208958F938D91882338
:1005F000E9F711978F9108950E94B003802D11F0B3
:1006000067D0FACF089580EC69C081E067D015D03B
:1006100080E864C08FE7213039F08FEB223021F081
:100620008FE8233009F08FEC810F0C946E0388EE75
:1006300093E081D03197D9F7089583E099277BC063
:100640008AEF90E00E949B03D09AD19AD29AD39AD3
:10065000D49AD59ADD9885E090E00E949B03DC98BF
:10066000D898D998DA9ADB9ADC9AEF93FF93E4EC66
:10067000F0E00E948F03FF91EF91DC9859D0DC9A53
:10068000EF93FF93E4ECF0E00E948F03FF91EF9172
:10069000DC984ED0DC9AEF93FF93E4ECF0E00E94FC
:1006A0008F03FF91EF91DC9843D0DB98DC9AEF93B6
:1006B000FF93E4ECF0E00E948F03FF91EF91DC9850
:1006C00037D088E20BD08EE009D086E007D00895BD
:1006D000DD9A829505D004D02BD00895DD98F9CF0E
:1006E000859510F4DB9A01C0DB98859510F4DA9AB1
:1006F00001C0DA98859510F4D99A01C0D9988595EA
:1007000010F4D89A01C0D898DC9AEF93FF93E4ECE8
:10071000F0E00E948F03FF91EF91DC9808953197EC
:10072000F1F70895689462F80895E89462F80895DE
:1007300081E090E000C0EF93FF93EE27E82BE92BD8
:1007400031F0E0EDF7E03197F1F70197D1F7FF9144
:10075000EF9108950E94B0030D920020D9F70895FB
:10076000C89531960020089581918D938823E1F7F3
:100770000895E199FECFEEBBFFBB31960895F9DFF6
:100780008D917B3729F48DBBE29AE19A8823B9F7E2
:100790007727089591E001C092E0EBDFE09A8DB3F6
:1007A0008D939A95D1F70895689401C0E894AF931A
:1007B000BF938D9116F0919103C00E94B003902DCC
:1007C000891718F011F48823A1F7BF91AF9108950C
:1007D000496E697369616C69736173692E2E2E00AD
:1007E0004D696E69617475720000446F6F722020EC
:1007F0004C6F636B0000496E7365727420506173B7
:1008000073776F726400416B73657320446974651C
:1008100072696D6100005374616E6462792E2E2ED0
:100820002E2E0000416B736573204469746F6C61F8
:100830006B004368616E67652050617373776F72F8
:1008400064004E6577203A20000050617373776F23
:100850007264204368616E676564000061002A006D
:100860006200630031003000320033003400350094
:0C087000360037003800390070006E00C0
:00000001FF
